{
  "contractName": "CBAToken",
  "abi": [
    {
      "inputs": [
        {
          "internalType": "address",
          "name": "wallet",
          "type": "address"
        },
        {
          "internalType": "address",
          "name": "owner",
          "type": "address"
        }
      ],
      "stateMutability": "nonpayable",
      "type": "constructor"
    },
    {
      "anonymous": false,
      "inputs": [
        {
          "indexed": true,
          "internalType": "address",
          "name": "owner",
          "type": "address"
        },
        {
          "indexed": true,
          "internalType": "address",
          "name": "spender",
          "type": "address"
        },
        {
          "indexed": false,
          "internalType": "uint256",
          "name": "value",
          "type": "uint256"
        }
      ],
      "name": "Approval",
      "type": "event"
    },
    {
      "anonymous": false,
      "inputs": [
        {
          "indexed": true,
          "internalType": "address",
          "name": "previousOwner",
          "type": "address"
        },
        {
          "indexed": true,
          "internalType": "address",
          "name": "newOwner",
          "type": "address"
        }
      ],
      "name": "OwnershipTransferred",
      "type": "event"
    },
    {
      "anonymous": false,
      "inputs": [
        {
          "indexed": true,
          "internalType": "address",
          "name": "from",
          "type": "address"
        },
        {
          "indexed": true,
          "internalType": "address",
          "name": "to",
          "type": "address"
        },
        {
          "indexed": false,
          "internalType": "uint256",
          "name": "value",
          "type": "uint256"
        }
      ],
      "name": "Transfer",
      "type": "event"
    },
    {
      "inputs": [],
      "name": "INITIAL_SUPPLY",
      "outputs": [
        {
          "internalType": "uint256",
          "name": "",
          "type": "uint256"
        }
      ],
      "stateMutability": "view",
      "type": "function"
    },
    {
      "inputs": [
        {
          "internalType": "address",
          "name": "owner",
          "type": "address"
        },
        {
          "internalType": "address",
          "name": "spender",
          "type": "address"
        }
      ],
      "name": "allowance",
      "outputs": [
        {
          "internalType": "uint256",
          "name": "",
          "type": "uint256"
        }
      ],
      "stateMutability": "view",
      "type": "function"
    },
    {
      "inputs": [
        {
          "internalType": "address",
          "name": "spender",
          "type": "address"
        },
        {
          "internalType": "uint256",
          "name": "amount",
          "type": "uint256"
        }
      ],
      "name": "approve",
      "outputs": [
        {
          "internalType": "bool",
          "name": "",
          "type": "bool"
        }
      ],
      "stateMutability": "nonpayable",
      "type": "function"
    },
    {
      "inputs": [
        {
          "internalType": "address",
          "name": "account",
          "type": "address"
        }
      ],
      "name": "balanceOf",
      "outputs": [
        {
          "internalType": "uint256",
          "name": "",
          "type": "uint256"
        }
      ],
      "stateMutability": "view",
      "type": "function"
    },
    {
      "inputs": [
        {
          "internalType": "uint256",
          "name": "amount",
          "type": "uint256"
        }
      ],
      "name": "burn",
      "outputs": [],
      "stateMutability": "nonpayable",
      "type": "function"
    },
    {
      "inputs": [
        {
          "internalType": "address",
          "name": "account",
          "type": "address"
        },
        {
          "internalType": "uint256",
          "name": "amount",
          "type": "uint256"
        }
      ],
      "name": "burnFrom",
      "outputs": [],
      "stateMutability": "nonpayable",
      "type": "function"
    },
    {
      "inputs": [],
      "name": "decimals",
      "outputs": [
        {
          "internalType": "uint8",
          "name": "",
          "type": "uint8"
        }
      ],
      "stateMutability": "view",
      "type": "function"
    },
    {
      "inputs": [
        {
          "internalType": "address",
          "name": "spender",
          "type": "address"
        },
        {
          "internalType": "uint256",
          "name": "subtractedValue",
          "type": "uint256"
        }
      ],
      "name": "decreaseAllowance",
      "outputs": [
        {
          "internalType": "bool",
          "name": "",
          "type": "bool"
        }
      ],
      "stateMutability": "nonpayable",
      "type": "function"
    },
    {
      "inputs": [
        {
          "internalType": "address",
          "name": "spender",
          "type": "address"
        },
        {
          "internalType": "uint256",
          "name": "addedValue",
          "type": "uint256"
        }
      ],
      "name": "increaseAllowance",
      "outputs": [
        {
          "internalType": "bool",
          "name": "",
          "type": "bool"
        }
      ],
      "stateMutability": "nonpayable",
      "type": "function"
    },
    {
      "inputs": [],
      "name": "name",
      "outputs": [
        {
          "internalType": "string",
          "name": "",
          "type": "string"
        }
      ],
      "stateMutability": "view",
      "type": "function"
    },
    {
      "inputs": [],
      "name": "owner",
      "outputs": [
        {
          "internalType": "address",
          "name": "",
          "type": "address"
        }
      ],
      "stateMutability": "view",
      "type": "function"
    },
    {
      "inputs": [],
      "name": "renounceOwnership",
      "outputs": [],
      "stateMutability": "nonpayable",
      "type": "function"
    },
    {
      "inputs": [],
      "name": "symbol",
      "outputs": [
        {
          "internalType": "string",
          "name": "",
          "type": "string"
        }
      ],
      "stateMutability": "view",
      "type": "function"
    },
    {
      "inputs": [],
      "name": "totalSupply",
      "outputs": [
        {
          "internalType": "uint256",
          "name": "",
          "type": "uint256"
        }
      ],
      "stateMutability": "view",
      "type": "function"
    },
    {
      "inputs": [
        {
          "internalType": "address",
          "name": "recipient",
          "type": "address"
        },
        {
          "internalType": "uint256",
          "name": "amount",
          "type": "uint256"
        }
      ],
      "name": "transfer",
      "outputs": [
        {
          "internalType": "bool",
          "name": "",
          "type": "bool"
        }
      ],
      "stateMutability": "nonpayable",
      "type": "function"
    },
    {
      "inputs": [
        {
          "internalType": "address",
          "name": "sender",
          "type": "address"
        },
        {
          "internalType": "address",
          "name": "recipient",
          "type": "address"
        },
        {
          "internalType": "uint256",
          "name": "amount",
          "type": "uint256"
        }
      ],
      "name": "transferFrom",
      "outputs": [
        {
          "internalType": "bool",
          "name": "",
          "type": "bool"
        }
      ],
      "stateMutability": "nonpayable",
      "type": "function"
    },
    {
      "inputs": [
        {
          "internalType": "address",
          "name": "newOwner",
          "type": "address"
        }
      ],
      "name": "transferOwnership",
      "outputs": [],
      "stateMutability": "nonpayable",
      "type": "function"
    }
  ],
  "bytecode": "0x60806040523480156200001157600080fd5b5060405162001590380380620015908339810160408190526200003491620005ee565b604080518082018252600b81527f43727970746f205065727800000000000000000000000000000000000000000060208083019182528351808501909452600484527f4350525800000000000000000000000000000000000000000000000000000000908401528151919291620000ae916003916200052b565b508051620000c49060049060208401906200052b565b505050620000f3620000e462000244640100000000026401000000009004565b64010000000062000248810204565b600160a060020a03811662000169576040517f08c379a000000000000000000000000000000000000000000000000000000000815260206004820152601d60248201527f435052583a20696e636f7272656374206f776e6572206164647265737300000060448201526064015b60405180910390fd5b600160a060020a038216620001db576040517f08c379a000000000000000000000000000000000000000000000000000000000815260206004820152601e60248201527f435052583a20696e636f72726563742077616c6c657420616464726573730000604482015260640162000160565b600160a060020a038116620001f864010000000062000244810204565b600160a060020a0316146200021b576200021b816401000000006200029a810204565b6200023c826b09b18ab5df7180b6b8000000640100000000620003ea810204565b5050620006bc565b3390565b60058054600160a060020a03838116600160a060020a0319831681179093556040519116919082907f8be0079c531659141344cd1fd0a4f28419497f9722a3daafe3b4186f6b6457e090600090a35050565b620002ad64010000000062000244810204565b600160a060020a0316620002c964010000000062000517810204565b600160a060020a0316146200033b576040517f08c379a000000000000000000000000000000000000000000000000000000000815260206004820181905260248201527f4f776e61626c653a2063616c6c6572206973206e6f7420746865206f776e6572604482015260640162000160565b600160a060020a038116620003d3576040517f08c379a000000000000000000000000000000000000000000000000000000000815260206004820152602660248201527f4f776e61626c653a206e6577206f776e657220697320746865207a65726f206160448201527f6464726573730000000000000000000000000000000000000000000000000000606482015260840162000160565b620003e78164010000000062000248810204565b50565b600160a060020a0382166200045c576040517f08c379a000000000000000000000000000000000000000000000000000000000815260206004820152601f60248201527f45524332303a206d696e7420746f20746865207a65726f206164647265737300604482015260640162000160565b620004736000838364010000000062000526810204565b806002600082825462000487919062000626565b9091555050600160a060020a03821660009081526020819052604081208054839290620004b690849062000626565b9091555050604051818152600160a060020a038316906000907fddf252ad1be2c89b69c2b068fc378daa952ba7f163c4a11628f55a4df523b3ef9060200160405180910390a3620005136000838364010000000062000526810204565b5050565b600554600160a060020a031690565b505050565b828054620005399062000666565b90600052602060002090601f0160209004810192826200055d5760008555620005a8565b82601f106200057857805160ff1916838001178555620005a8565b82800160010185558215620005a8579182015b82811115620005a85782518255916020019190600101906200058b565b50620005b6929150620005ba565b5090565b5b80821115620005b65760008155600101620005bb565b8051600160a060020a0381168114620005e957600080fd5b919050565b600080604083850312156200060257600080fd5b6200060d83620005d1565b91506200061d60208401620005d1565b90509250929050565b6000821982111562000661577f4e487b7100000000000000000000000000000000000000000000000000000000600052601160045260246000fd5b500190565b6002810460018216806200067b57607f821691505b60208210811415620006b6577f4e487b7100000000000000000000000000000000000000000000000000000000600052602260045260246000fd5b50919050565b610ec480620006cc6000396000f3fe608060405234801561001057600080fd5b5060043610610128576000357c01000000000000000000000000000000000000000000000000000000009004806370a08231116100bf57806395d89b411161008e57806395d89b411461023c578063a457c2d714610244578063a9059cbb14610257578063dd62ed3e1461026a578063f2fde38b146102a357600080fd5b806370a08231146101dd578063715018a61461020657806379cc67901461020e5780638da5cb5b1461022157600080fd5b80632ff2e9dc116100fb5780632ff2e9dc14610193578063313ce567146101a657806339509351146101b557806342966c68146101c857600080fd5b806306fdde031461012d578063095ea7b31461014b57806318160ddd1461016e57806323b872dd14610180575b600080fd5b6101356102b6565b6040516101429190610d87565b60405180910390f35b61015e610159366004610d44565b610348565b6040519015158152602001610142565b6002545b604051908152602001610142565b61015e61018e366004610d08565b61035e565b6101726b09b18ab5df7180b6b800000081565b60405160128152602001610142565b61015e6101c3366004610d44565b610425565b6101db6101d6366004610d6e565b610461565b005b6101726101eb366004610cb3565b600160a060020a031660009081526020819052604090205490565b6101db61046e565b6101db61021c366004610d44565b6104d7565b600554604051600160a060020a039091168152602001610142565b610135610579565b61015e610252366004610d44565b610588565b61015e610265366004610d44565b61063c565b610172610278366004610cd5565b600160a060020a03918216600090815260016020908152604080832093909416825291909152205490565b6101db6102b1366004610cb3565b610649565b6060600380546102c590610e0b565b80601f01602080910402602001604051908101604052809291908181526020018280546102f190610e0b565b801561033e5780601f106103135761010080835404028352916020019161033e565b820191906000526020600020905b81548152906001019060200180831161032157829003601f168201915b5050505050905090565b600061035533848461072e565b50600192915050565b600061036b84848461088c565b600160a060020a03841660009081526001602090815260408083203384529091529020548281101561040d5760405160e560020a62461bcd02815260206004820152602860248201527f45524332303a207472616e7366657220616d6f756e742065786365656473206160448201527f6c6c6f77616e636500000000000000000000000000000000000000000000000060648201526084015b60405180910390fd5b61041a853385840361072e565b506001949350505050565b336000818152600160209081526040808320600160a060020a0387168452909152812054909161035591859061045c908690610ddc565b61072e565b61046b3382610aad565b50565b600554600160a060020a031633146104cb5760405160e560020a62461bcd02815260206004820181905260248201527f4f776e61626c653a2063616c6c6572206973206e6f7420746865206f776e65726044820152606401610404565b6104d56000610c38565b565b60006104e38333610278565b90508181101561055d5760405160e560020a62461bcd028152602060048201526024808201527f45524332303a206275726e20616d6f756e74206578636565647320616c6c6f7760448201527f616e6365000000000000000000000000000000000000000000000000000000006064820152608401610404565b61056a833384840361072e565b6105748383610aad565b505050565b6060600480546102c590610e0b565b336000908152600160209081526040808320600160a060020a0386168452909152812054828110156106255760405160e560020a62461bcd02815260206004820152602560248201527f45524332303a2064656372656173656420616c6c6f77616e63652062656c6f7760448201527f207a65726f0000000000000000000000000000000000000000000000000000006064820152608401610404565b610632338585840361072e565b5060019392505050565b600061035533848461088c565b600554600160a060020a031633146106a65760405160e560020a62461bcd02815260206004820181905260248201527f4f776e61626c653a2063616c6c6572206973206e6f7420746865206f776e65726044820152606401610404565b600160a060020a0381166107255760405160e560020a62461bcd02815260206004820152602660248201527f4f776e61626c653a206e6577206f776e657220697320746865207a65726f206160448201527f64647265737300000000000000000000000000000000000000000000000000006064820152608401610404565b61046b81610c38565b600160a060020a0383166107ac5760405160e560020a62461bcd028152602060048201526024808201527f45524332303a20617070726f76652066726f6d20746865207a65726f2061646460448201527f72657373000000000000000000000000000000000000000000000000000000006064820152608401610404565b600160a060020a03821661082b5760405160e560020a62461bcd02815260206004820152602260248201527f45524332303a20617070726f766520746f20746865207a65726f20616464726560448201527f73730000000000000000000000000000000000000000000000000000000000006064820152608401610404565b600160a060020a0383811660008181526001602090815260408083209487168084529482529182902085905590518481527f8c5be1e5ebec7d5bd14f71427d1e84f3dd0314c0f7b2291e5b200ac8c7c3b925910160405180910390a3505050565b600160a060020a03831661090b5760405160e560020a62461bcd02815260206004820152602560248201527f45524332303a207472616e736665722066726f6d20746865207a65726f20616460448201527f64726573730000000000000000000000000000000000000000000000000000006064820152608401610404565b600160a060020a03821661098a5760405160e560020a62461bcd02815260206004820152602360248201527f45524332303a207472616e7366657220746f20746865207a65726f206164647260448201527f65737300000000000000000000000000000000000000000000000000000000006064820152608401610404565b600160a060020a03831660009081526020819052604090205481811015610a1c5760405160e560020a62461bcd02815260206004820152602660248201527f45524332303a207472616e7366657220616d6f756e742065786365656473206260448201527f616c616e636500000000000000000000000000000000000000000000000000006064820152608401610404565b600160a060020a03808516600090815260208190526040808220858503905591851681529081208054849290610a53908490610ddc565b9250508190555082600160a060020a031684600160a060020a03167fddf252ad1be2c89b69c2b068fc378daa952ba7f163c4a11628f55a4df523b3ef84604051610a9f91815260200190565b60405180910390a350505050565b600160a060020a038216610b2c5760405160e560020a62461bcd02815260206004820152602160248201527f45524332303a206275726e2066726f6d20746865207a65726f2061646472657360448201527f73000000000000000000000000000000000000000000000000000000000000006064820152608401610404565b600160a060020a03821660009081526020819052604090205481811015610bbe5760405160e560020a62461bcd02815260206004820152602260248201527f45524332303a206275726e20616d6f756e7420657863656564732062616c616e60448201527f63650000000000000000000000000000000000000000000000000000000000006064820152608401610404565b600160a060020a0383166000908152602081905260408120838303905560028054849290610bed908490610df4565b9091555050604051828152600090600160a060020a038516907fddf252ad1be2c89b69c2b068fc378daa952ba7f163c4a11628f55a4df523b3ef9060200160405180910390a3505050565b60058054600160a060020a0383811673ffffffffffffffffffffffffffffffffffffffff19831681179093556040519116919082907f8be0079c531659141344cd1fd0a4f28419497f9722a3daafe3b4186f6b6457e090600090a35050565b8035600160a060020a0381168114610cae57600080fd5b919050565b600060208284031215610cc557600080fd5b610cce82610c97565b9392505050565b60008060408385031215610ce857600080fd5b610cf183610c97565b9150610cff60208401610c97565b90509250929050565b600080600060608486031215610d1d57600080fd5b610d2684610c97565b9250610d3460208501610c97565b9150604084013590509250925092565b60008060408385031215610d5757600080fd5b610d6083610c97565b946020939093013593505050565b600060208284031215610d8057600080fd5b5035919050565b600060208083528351808285015260005b81811015610db457858101830151858201604001528201610d98565b81811115610dc6576000604083870101525b50601f01601f1916929092016040019392505050565b60008219821115610def57610def610e5f565b500190565b600082821015610e0657610e06610e5f565b500390565b600281046001821680610e1f57607f821691505b60208210811415610e59577f4e487b7100000000000000000000000000000000000000000000000000000000600052602260045260246000fd5b50919050565b7f4e487b7100000000000000000000000000000000000000000000000000000000600052601160045260246000fdfea26469706673582212203d1de5f94477fef8b825ff7f2bafc89d6b07f51caba28acb7884fea395d8886364736f6c63430008060033",
  "immutableReferences": {},
  "source": "// SPDX-License-Identifier: MIT\r\npragma solidity ^0.8.5;\r\n\r\nimport \"@openzeppelin/contracts/token/ERC20/extensions/ERC20Burnable.sol\";\r\nimport \"@openzeppelin/contracts/access/Ownable.sol\";\r\ncontract CBAToken is ERC20Burnable,Ownable {\r\n    uint256 public constant INITIAL_SUPPLY = 3_000_000_000 * 10**18;\r\n    constructor(address wallet,address owner) ERC20(\"Crypto Perx\", \"CPRX\") {\r\n        require(owner != address(0), 'CPRX: incorrect owner address');\r\n        require(wallet != address(0), 'CPRX: incorrect wallet address');\r\n        if (_msgSender() != owner) {\r\n            transferOwnership(owner);\r\n        }\r\n        _mint(wallet, INITIAL_SUPPLY);\r\n    }\r\n}",
  "sourcePath": "D:\\Documents\\Work\\Repos\\abra\\CPRX\\contracts\\token\\CBAToken.sol",
  "compiler": {
    "name": "solc",
    "version": "0.8.6+commit.11564f7e.Emscripten.clang"
  },
  "schemaVersion": "3.4.3",
  "updatedAt": "2021-10-07T12:46:57.722Z",
  "devdoc": {
    "kind": "dev",
    "methods": {
      "allowance(address,address)": {
        "details": "See {IERC20-allowance}."
      },
      "approve(address,uint256)": {
        "details": "See {IERC20-approve}. Requirements: - `spender` cannot be the zero address."
      },
      "balanceOf(address)": {
        "details": "See {IERC20-balanceOf}."
      },
      "burn(uint256)": {
        "details": "Destroys `amount` tokens from the caller. See {ERC20-_burn}."
      },
      "burnFrom(address,uint256)": {
        "details": "Destroys `amount` tokens from `account`, deducting from the caller's allowance. See {ERC20-_burn} and {ERC20-allowance}. Requirements: - the caller must have allowance for ``accounts``'s tokens of at least `amount`."
      },
      "decimals()": {
        "details": "Returns the number of decimals used to get its user representation. For example, if `decimals` equals `2`, a balance of `505` tokens should be displayed to a user as `5.05` (`505 / 10 ** 2`). Tokens usually opt for a value of 18, imitating the relationship between Ether and Wei. This is the value {ERC20} uses, unless this function is overridden; NOTE: This information is only used for _display_ purposes: it in no way affects any of the arithmetic of the contract, including {IERC20-balanceOf} and {IERC20-transfer}."
      },
      "decreaseAllowance(address,uint256)": {
        "details": "Atomically decreases the allowance granted to `spender` by the caller. This is an alternative to {approve} that can be used as a mitigation for problems described in {IERC20-approve}. Emits an {Approval} event indicating the updated allowance. Requirements: - `spender` cannot be the zero address. - `spender` must have allowance for the caller of at least `subtractedValue`."
      },
      "increaseAllowance(address,uint256)": {
        "details": "Atomically increases the allowance granted to `spender` by the caller. This is an alternative to {approve} that can be used as a mitigation for problems described in {IERC20-approve}. Emits an {Approval} event indicating the updated allowance. Requirements: - `spender` cannot be the zero address."
      },
      "name()": {
        "details": "Returns the name of the token."
      },
      "owner()": {
        "details": "Returns the address of the current owner."
      },
      "renounceOwnership()": {
        "details": "Leaves the contract without owner. It will not be possible to call `onlyOwner` functions anymore. Can only be called by the current owner. NOTE: Renouncing ownership will leave the contract without an owner, thereby removing any functionality that is only available to the owner."
      },
      "symbol()": {
        "details": "Returns the symbol of the token, usually a shorter version of the name."
      },
      "totalSupply()": {
        "details": "See {IERC20-totalSupply}."
      },
      "transfer(address,uint256)": {
        "details": "See {IERC20-transfer}. Requirements: - `recipient` cannot be the zero address. - the caller must have a balance of at least `amount`."
      },
      "transferFrom(address,address,uint256)": {
        "details": "See {IERC20-transferFrom}. Emits an {Approval} event indicating the updated allowance. This is not required by the EIP. See the note at the beginning of {ERC20}. Requirements: - `sender` and `recipient` cannot be the zero address. - `sender` must have a balance of at least `amount`. - the caller must have allowance for ``sender``'s tokens of at least `amount`."
      },
      "transferOwnership(address)": {
        "details": "Transfers ownership of the contract to a new account (`newOwner`). Can only be called by the current owner."
      }
    },
    "version": 1
  },
  "userdoc": {
    "kind": "user",
    "methods": {},
    "version": 1
  }
}